:100000000C942A000C943F000C943F000C943F0089
:100010000C943F000C943F000C943F000C943F0064
:100020000C943F000C943F000C943F000C943F0054
:100030000C943F000C943F000C943F000C943F0044
:100040000C943F000C943F000C943F000C943F0034
:100050000C943F0011241FBECFE5D4E0DEBFCDBF1E
:1000600010E0A0E6B0E0E4E8F2E002C005900D92F6
:10007000A63BB107D9F70E9412010C9440010C94E1
:10008000000090E49BBB88BB8FEC97E00197F1F7F1
:1000900000C000001BBA8FEC97E00197F1F700C099
:1000A0000000089588E30E9441008FEC97E00197DB
:1000B000F1F700C0000081E00E9441008FEC97E062
:1000C0000197F1F700C0000086E00E9441008FEC2C
:1000D00097E00197F1F700C000008EE00E94410018
:1000E0008FEC97E00197F1F700C00000089590ECC5
:1000F0009BBB88BB8FEC97E00197F1F700C0000035
:1001000080E88BBB8FEC97E00197F1F700C000000F
:1001100008950F931F93CF93DF938C01C0E0D0E03D
:1001200003C00E9477002196F801EC0FFD1F80812B
:100130008111F7CFDF91CF911F910F91089580EE3C
:1001400085BB849B3FC0859B40C0869B41C0879BED
:1001500042C08FEC97E00197F1F700C0000080EDFE
:1001600085BB849B3BC0859B3CC0869B3DC0879BD9
:100170003EC08FEC97E00197F1F700C0000080EBE4
:1001800085BB849B37C0859B38C0869B39C0879BC5
:100190003AC08FEC97E00197F1F700C0000080E7CC
:1001A00085BB849B33C0859B34C0869B35C0879BB1
:1001B00036C08FEC97E00197F1F700C0000087EAA6
:1001C00090E0089580E690E0089584E690E0089538
:1001D00088E690E008958CE690E0089580E790E04E
:1001E000089584E790E0089588E790E008958CE70B
:1001F00090E0089580E890E0089584E890E0089504
:1002000089E890E008958EE890E0089583E990E011
:10021000089588E990E008958DE990E0089582EAD4
:1002200090E008958FEF87BB8ABB84BB11BA0E9410
:1002300052008FE097E20197F1F700C000008CE0D8
:100240000E9441008CEA90E00E9489000E949F0079
:10025000875A9040D9F381E00E9441008CEA90E0F7
:100260000E9489000E949F000E9489008FEF94E302
:100270002CE0815090402040E1F700C00000E6CF24
:04028000F894FFCF20
:1002840053573100535732005357330053573400F8
:1002940053573500535736005357370053573800D8
:1002A40053573900535731300053573131005357A6
:1002B40031320053573133005357313400535731DF
:1002C400350053573136004E554C4C006B657970F0
:0602D40061643A20000005
:00000001FF
